{
  "transactions": [
    {
      "hash": "0xa6187596082a767c86ee2ac0b03278566ba85404d1600c2f392310745cac18c0",
      "transactionType": "CALL",
      "contractName": null,
      "contractAddress": "0x779877A7B0D9E8603169DdbD7836e478b4624789",
      "function": "transferAndCall(address,uint256,bytes):(bool)",
      "arguments": [
        "0x8103B0A8A00be2DDC778e6e7eaa21791Cd364625",
        "3000000000000000000",
        "0x0000000000000000000000000000000000000000000000000000000000000001"
      ],
      "transaction": {
        "type": "0x02",
        "from": "0x10f08f342bff3d210341fead0923569bd7e18e5f",
        "to": "0x779877a7b0d9e8603169ddbd7836e478b4624789",
        "gas": "0x1527c",
        "value": "0x0",
        "data": "0x4000aea00000000000000000000000008103b0a8a00be2ddc778e6e7eaa21791cd36462500000000000000000000000000000000000000000000000029a2241af62c0000000000000000000000000000000000000000000000000000000000000000006000000000000000000000000000000000000000000000000000000000000000200000000000000000000000000000000000000000000000000000000000000001",
        "nonce": "0xe",
        "accessList": []
      },
      "additionalContracts": [],
      "isFixedGasLimit": false
    }
  ],
  "receipts": [
    {
      "transactionHash": "0xa6187596082a767c86ee2ac0b03278566ba85404d1600c2f392310745cac18c0",
      "transactionIndex": "0x9",
      "blockHash": "0x49e940d9e541c5a2a657e3dfac975f75b4c3d18bfb4f1faeee82e8405fe779de",
      "blockNumber": "0x44f1a7",
      "from": "0x10F08F342bfF3D210341feAd0923569bd7E18E5f",
      "to": "0x779877A7B0D9E8603169DdbD7836e478b4624789",
      "cumulativeGasUsed": "0x47bb6",
      "gasUsed": "0xe772",
      "contractAddress": null,
      "logs": [
        {
          "address": "0x779877A7B0D9E8603169DdbD7836e478b4624789",
          "topics": [
            "0xddf252ad1be2c89b69c2b068fc378daa952ba7f163c4a11628f55a4df523b3ef",
            "0x00000000000000000000000010f08f342bff3d210341fead0923569bd7e18e5f",
            "0x0000000000000000000000008103b0a8a00be2ddc778e6e7eaa21791cd364625"
          ],
          "data": "0x00000000000000000000000000000000000000000000000029a2241af62c0000",
          "blockHash": "0x49e940d9e541c5a2a657e3dfac975f75b4c3d18bfb4f1faeee82e8405fe779de",
          "blockNumber": "0x44f1a7",
          "transactionHash": "0xa6187596082a767c86ee2ac0b03278566ba85404d1600c2f392310745cac18c0",
          "transactionIndex": "0x9",
          "logIndex": "0x1",
          "removed": false
        },
        {
          "address": "0x779877A7B0D9E8603169DdbD7836e478b4624789",
          "topics": [
            "0xe19260aff97b920c7df27010903aeb9c8d2be5d310a2c67824cf3f15396e4c16",
            "0x00000000000000000000000010f08f342bff3d210341fead0923569bd7e18e5f",
            "0x0000000000000000000000008103b0a8a00be2ddc778e6e7eaa21791cd364625"
          ],
          "data": "0x00000000000000000000000000000000000000000000000029a2241af62c0000000000000000000000000000000000000000000000000000000000000000004000000000000000000000000000000000000000000000000000000000000000200000000000000000000000000000000000000000000000000000000000000001",
          "blockHash": "0x49e940d9e541c5a2a657e3dfac975f75b4c3d18bfb4f1faeee82e8405fe779de",
          "blockNumber": "0x44f1a7",
          "transactionHash": "0xa6187596082a767c86ee2ac0b03278566ba85404d1600c2f392310745cac18c0",
          "transactionIndex": "0x9",
          "logIndex": "0x2",
          "removed": false
        },
        {
          "address": "0x8103B0A8A00be2DDC778e6e7eaa21791Cd364625",
          "topics": [
            "0xd39ec07f4e209f627a4c427971473820dc129761ba28de8906bd56f57101d4f8",
            "0x0000000000000000000000000000000000000000000000000000000000000001"
          ],
          "data": "0x0000000000000000000000000000000000000000000000018d58b713275bf83c000000000000000000000000000000000000000000000001b6fadb2e1d87f83c",
          "blockHash": "0x49e940d9e541c5a2a657e3dfac975f75b4c3d18bfb4f1faeee82e8405fe779de",
          "blockNumber": "0x44f1a7",
          "transactionHash": "0xa6187596082a767c86ee2ac0b03278566ba85404d1600c2f392310745cac18c0",
          "transactionIndex": "0x9",
          "logIndex": "0x3",
          "removed": false
        }
      ],
      "status": "0x1",
      "logsBloom": "0x0000001400000000000000000000000000000000004000020000000002000000000000000000800000000000000000000000000008000000000000000004000000000000000000000000000800000000000000000004000000002000000000000000000000000000000000000000000000000000400000000000001000000000000000000c000020000000000000800010000020000000000000000000000000000000000000000000000000000000000000000000000002000400000000000000000002000000000000000000000000000000000000000100000000000040000000000000000000000000000000000000000000000000000000000000000000",
      "type": "0x2",
      "effectiveGasPrice": "0x16d3ec38b"
    }
  ],
  "libraries": [],
  "pending": [],
  "returns": {},
  "timestamp": 1697700159,
  "chain": 11155111,
  "multi": false,
  "commit": "5316f50"
}