{
  "transactions": [
    {
      "hash": "0x3c323f6bff7a50fcf4c2471973fb5bde4ad5edb4d14d45976fee6a5fe2bc4967",
      "transactionType": "CALL",
      "contractName": null,
      "contractAddress": "0x779877A7B0D9E8603169DdbD7836e478b4624789",
      "function": "transferAndCall(address,uint256,bytes):(bool)",
      "arguments": [
        "0x8103B0A8A00be2DDC778e6e7eaa21791Cd364625",
        "3000000000000000000",
        "0x0000000000000000000000000000000000000000000000000000000000000001"
      ],
      "transaction": {
        "type": "0x02",
        "from": "0x10f08f342bff3d210341fead0923569bd7e18e5f",
        "to": "0x779877a7b0d9e8603169ddbd7836e478b4624789",
        "gas": "0x1527c",
        "value": "0x0",
        "data": "0x4000aea00000000000000000000000008103b0a8a00be2ddc778e6e7eaa21791cd36462500000000000000000000000000000000000000000000000029a2241af62c0000000000000000000000000000000000000000000000000000000000000000006000000000000000000000000000000000000000000000000000000000000000200000000000000000000000000000000000000000000000000000000000000001",
        "nonce": "0xa",
        "accessList": []
      },
      "additionalContracts": [],
      "isFixedGasLimit": false
    }
  ],
  "receipts": [
    {
      "transactionHash": "0x3c323f6bff7a50fcf4c2471973fb5bde4ad5edb4d14d45976fee6a5fe2bc4967",
      "transactionIndex": "0xa",
      "blockHash": "0x88ce1f2dcb54cdd4e9b9ccad58ff9f4cc9ffba82094441d968d5a11892b4c0b8",
      "blockNumber": "0x44f184",
      "from": "0x10F08F342bfF3D210341feAd0923569bd7E18E5f",
      "to": "0x779877A7B0D9E8603169DdbD7836e478b4624789",
      "cumulativeGasUsed": "0x55a8e",
      "gasUsed": "0xe772",
      "contractAddress": null,
      "logs": [
        {
          "address": "0x779877A7B0D9E8603169DdbD7836e478b4624789",
          "topics": [
            "0xddf252ad1be2c89b69c2b068fc378daa952ba7f163c4a11628f55a4df523b3ef",
            "0x00000000000000000000000010f08f342bff3d210341fead0923569bd7e18e5f",
            "0x0000000000000000000000008103b0a8a00be2ddc778e6e7eaa21791cd364625"
          ],
          "data": "0x00000000000000000000000000000000000000000000000029a2241af62c0000",
          "blockHash": "0x88ce1f2dcb54cdd4e9b9ccad58ff9f4cc9ffba82094441d968d5a11892b4c0b8",
          "blockNumber": "0x44f184",
          "transactionHash": "0x3c323f6bff7a50fcf4c2471973fb5bde4ad5edb4d14d45976fee6a5fe2bc4967",
          "transactionIndex": "0xa",
          "logIndex": "0x0",
          "removed": false
        },
        {
          "address": "0x779877A7B0D9E8603169DdbD7836e478b4624789",
          "topics": [
            "0xe19260aff97b920c7df27010903aeb9c8d2be5d310a2c67824cf3f15396e4c16",
            "0x00000000000000000000000010f08f342bff3d210341fead0923569bd7e18e5f",
            "0x0000000000000000000000008103b0a8a00be2ddc778e6e7eaa21791cd364625"
          ],
          "data": "0x00000000000000000000000000000000000000000000000029a2241af62c0000000000000000000000000000000000000000000000000000000000000000004000000000000000000000000000000000000000000000000000000000000000200000000000000000000000000000000000000000000000000000000000000001",
          "blockHash": "0x88ce1f2dcb54cdd4e9b9ccad58ff9f4cc9ffba82094441d968d5a11892b4c0b8",
          "blockNumber": "0x44f184",
          "transactionHash": "0x3c323f6bff7a50fcf4c2471973fb5bde4ad5edb4d14d45976fee6a5fe2bc4967",
          "transactionIndex": "0xa",
          "logIndex": "0x1",
          "removed": false
        },
        {
          "address": "0x8103B0A8A00be2DDC778e6e7eaa21791Cd364625",
          "topics": [
            "0xd39ec07f4e209f627a4c427971473820dc129761ba28de8906bd56f57101d4f8",
            "0x0000000000000000000000000000000000000000000000000000000000000001"
          ],
          "data": "0x0000000000000000000000000000000000000000000000013a146edd3b03f83c00000000000000000000000000000000000000000000000163b692f8312ff83c",
          "blockHash": "0x88ce1f2dcb54cdd4e9b9ccad58ff9f4cc9ffba82094441d968d5a11892b4c0b8",
          "blockNumber": "0x44f184",
          "transactionHash": "0x3c323f6bff7a50fcf4c2471973fb5bde4ad5edb4d14d45976fee6a5fe2bc4967",
          "transactionIndex": "0xa",
          "logIndex": "0x2",
          "removed": false
        }
      ],
      "status": "0x1",
      "logsBloom": "0x0000001400000000000000000000000000000000004000020000000002000000000000000000800000000000000000000000000008000000000000000004000000000000000000000000000800000000000000000004000000002000000000000000000000000000000000000000000000000000400000000000001000000000000000000c000020000000000000800010000020000000000000000000000000000000000000000000000000000000000000000000000002000400000000000000000002000000000000000000000000000000000000000100000000000040000000000000000000000000000000000000000000000000000000000000000000",
      "type": "0x2",
      "effectiveGasPrice": "0x158d02f81"
    }
  ],
  "libraries": [],
  "pending": [],
  "returns": {},
  "timestamp": 1697699682,
  "chain": 11155111,
  "multi": false,
  "commit": "5316f50"
}