{
  "transactions": [
    {
      "hash": "0xa0ade37b53bbc7641df029a5daa203ba7f6bb046d953005abe29e6595c30ebc6",
      "transactionType": "CALL",
      "contractName": null,
      "contractAddress": "0x779877A7B0D9E8603169DdbD7836e478b4624789",
      "function": "transfer(address,uint256):(bool)",
      "arguments": [
        "0x8103B0A8A00be2DDC778e6e7eaa21791Cd364625",
        "3000000000000000000"
      ],
      "transaction": {
        "type": "0x02",
        "from": "0x10f08f342bff3d210341fead0923569bd7e18e5f",
        "to": "0x779877a7b0d9e8603169ddbd7836e478b4624789",
        "gas": "0xba74",
        "value": "0x0",
        "data": "0xa9059cbb0000000000000000000000008103b0a8a00be2ddc778e6e7eaa21791cd36462500000000000000000000000000000000000000000000000029a2241af62c0000",
        "nonce": "0x15",
        "accessList": []
      },
      "additionalContracts": [],
      "isFixedGasLimit": false
    }
  ],
  "receipts": [],
  "libraries": [],
  "pending": [
    "0xa0ade37b53bbc7641df029a5daa203ba7f6bb046d953005abe29e6595c30ebc6"
  ],
  "returns": {},
  "timestamp": 1697754836,
  "chain": 11155111,
  "multi": false,
  "commit": "5316f50"
}