{
  "transactions": [
    {
      "hash": "0xa0ade37b53bbc7641df029a5daa203ba7f6bb046d953005abe29e6595c30ebc6",
      "transactionType": "CALL",
      "contractName": null,
      "contractAddress": "0x779877A7B0D9E8603169DdbD7836e478b4624789",
      "function": "transfer(address,uint256):(bool)",
      "arguments": [
        "0x8103B0A8A00be2DDC778e6e7eaa21791Cd364625",
        "3000000000000000000"
      ],
      "transaction": {
        "type": "0x02",
        "from": "0x10f08f342bff3d210341fead0923569bd7e18e5f",
        "to": "0x779877a7b0d9e8603169ddbd7836e478b4624789",
        "gas": "0xba74",
        "value": "0x0",
        "data": "0xa9059cbb0000000000000000000000008103b0a8a00be2ddc778e6e7eaa21791cd36462500000000000000000000000000000000000000000000000029a2241af62c0000",
        "nonce": "0x15",
        "accessList": []
      },
      "additionalContracts": [],
      "isFixedGasLimit": false
    }
  ],
  "receipts": [
    {
      "transactionHash": "0xa0ade37b53bbc7641df029a5daa203ba7f6bb046d953005abe29e6595c30ebc6",
      "transactionIndex": "0x3",
      "blockHash": "0xa082fa01f8eeb9e3a500976a420c46ae6ed1bae8b61402c9a098a295ca886b12",
      "blockNumber": "0x450138",
      "from": "0x10F08F342bfF3D210341feAd0923569bd7E18E5f",
      "to": "0x779877A7B0D9E8603169DdbD7836e478b4624789",
      "cumulativeGasUsed": "0x4d3cf7",
      "gasUsed": "0x86fe",
      "contractAddress": null,
      "logs": [
        {
          "address": "0x779877A7B0D9E8603169DdbD7836e478b4624789",
          "topics": [
            "0xddf252ad1be2c89b69c2b068fc378daa952ba7f163c4a11628f55a4df523b3ef",
            "0x00000000000000000000000010f08f342bff3d210341fead0923569bd7e18e5f",
            "0x0000000000000000000000008103b0a8a00be2ddc778e6e7eaa21791cd364625"
          ],
          "data": "0x00000000000000000000000000000000000000000000000029a2241af62c0000",
          "blockHash": "0xa082fa01f8eeb9e3a500976a420c46ae6ed1bae8b61402c9a098a295ca886b12",
          "blockNumber": "0x450138",
          "transactionHash": "0xa0ade37b53bbc7641df029a5daa203ba7f6bb046d953005abe29e6595c30ebc6",
          "transactionIndex": "0x3",
          "logIndex": "0x3",
          "removed": false
        }
      ],
      "status": "0x1",
      "logsBloom": "0x00000014000000000000000000000000000000000040000000000000000000000000000000008000000000000000000000000000080000000000000000000000000000000000000000000008000000000000000000000000000000000000000000000000000000000000000000000000000000004000000000000010000000000000000000000000000000000000800000000000000000000000000000000000000000000000000000000000000000000000000000000002000000000000000000000002000000000000000000000000000000000000000100000000000000000000000000000000000000000000000000000000000000000000000000000000",
      "type": "0x2",
      "effectiveGasPrice": "0xb2d05e0c"
    }
  ],
  "libraries": [],
  "pending": [],
  "returns": {},
  "timestamp": 1697754843,
  "chain": 11155111,
  "multi": false,
  "commit": "5316f50"
}